:020000041000EA
:1000000000B5324B212058609868022188439860DF
:10001000D860186158612E4B002199600221596106
:100020000121F02299502B49196001219960352056
:1000300000F044F80222904214D00621196600F024
:1000400034F8196E01211966002018661A6600F04E
:100050002CF8196E196E196E052000F02FF8012189
:100060000842F9D1002199601B49196000215960AB
:100070001A491B48016001219960EB211966A021F2
:10008000196600F012F800219960164914480160C1
:100090000121996001BC002800D000471248134993
:1000A000086003C880F30888084703B5996A0420EC
:1000B0000142FBD001200142F8D103BD02B5186610
:1000C0001866FFF7F2FF186E186E02BD00000240BE
:1000D000000000180000070000035F00212200005C
:1000E000F4000018222000A00001001008ED00E03C
:1000F00000000000000000000000000074B24E7A12
:1001000000200420F7010010C3010010C5010010F9
:10011000C1010010C1010010C1010010C101001097
:10012000C1010010C1010010C1010010C701001081
:10013000C1010010C1010010C9010010CB01001065
:10014000CD010010CD010010CD010010CD01001037
:10015000CD010010CD010010CD010010CD01001027
:10016000CD010010CD010010CD010010CD01001017
:10017000CD010010CD010010CD010010CD01001007
:10018000CD010010CD010010CD010010CD010010F7
:10019000CD010010CD010010CD010010CD010010E7
:1001A000CD010010CD010010CD010010CD010010D7
:1001B000CD010010CD010010CD010010CD010010C7
:1001C00000BE00BE00BE00BE00BE00BEEFF3058054
:1001D000103800BEF2EB8871ECD4001008D5001086
:1001E0003402001090A31AE700201F49086006C8D7
:1001F00081F3088810471D48006800282FD10DA4FE
:100200000ECC002902D000F012F8F9E71849194A7B
:10021000002000E001C19142FCD1174988471749ED
:1002200088471749884700BEFDE701C901C29A42C5
:10023000FBD3704708D50010C0000020840E0020BA
:10024000CCE200100000042000000420CCE20010EA
:10025000001004200010042000000000704709482E
:1002600003F0C4F80047000008ED00E0000000D0F3
:10027000880E0020E4140020E5200010090300107F
:10028000A52000105756000006005250ABB3605333
:1002900054C0001006005250861C030264C00010B7
:1002A000060052505422A29D6CC00010050052500E
:1002B000DE65F468CCE20010F8B5C0460648074990
:1002C000091A8B10C90FC91810B5491003D0044B77
:1002D000002B00D0984710BD840E0020840E002013
:1002E00000000000054B10B5002B03D00449054861
:1002F00000E000BFFFF7E2FF10BDC04600000000B5
:100300009812002040AE001030B53F4CA54401A922
:100310003E4B0A0031CB31C203CB03C21B88138092
:1003200009F088FA002803D1394804F091F9FEE772
:1003300038490122B8A806F0F1FF011E03D0364863
:1003400004F0B6F9FEE70A2201A920A807F016F882
:10035000011E03D0314804F0ABF9FEE7304920A874
:1003600007F096FE011E0EDB2E4920A807F090FE36
:10037000011E0FDB20A807F0B6FD011E11D02A4890
:1003800004F096F9FEE7294804F092F920A807F056
:10039000AAFDFEE7254804F08BF920A807F0A3FD8D
:1003A000FEE7012201A920A806F0E8FF011E03D004
:1003B0001A4804F07DF9FEE71D4801A904F078F918
:1003C0001C4804F045F902E007A804F071F920AADE
:1003D000642107A807F09EFD0028F5D1164804F017
:1003E00037F920A807F07FFD011E03D00E4804F066
:1003F0005FF9FEE707490022100006F08FFFFA20A0
:10040000800001F05AF9FAE7B4FAFFFF8CAF001050
:1004100040AE001068AE00106CAE001098AE001038
:10042000BCAE0010F8AE00103CAF0010D0AE001013
:1004300060AF00107CAF001084AF00100120704747
:1004400010B50400FFF7FAFFA04205D3AE208000EC
:100450006043024BC01810BD0020FCE7800500205F
:100460000120704710B50400FFF7E8FFA04203D356
:10047000A001024BC01810BD0020FCE73808002086
:1004800010B58300084A944663441A6840246240C9
:10049000803414408022520113431C60C000034B7F
:1004A0009C466044416010BD04C0014000400140D2
:1004B00080000B4B9C46604400290DD00823002A85
:1004C0000CD004221343026853400C221A408023AC
:1004D0005B0103431A6070470023F0E70022F1E755
:1004E00004C001408000064B9C466044090103683B
:1004F000594030220A4080235B0103431A60704751
:1005000004C0014010B501238340D022120693623B
:1005100093610521FFF7B4FF10BD0000034B1B687A
:1005200002201840431E9841C0B2704700C00640E8
:10053000EFF3108072B6034B1B68002BFBD0BFF3A8
:100540005F8F70472C0100D0BFF35F8F024B0022FA
:100550001A6080F3108870472C0100D0F8B50600AF
:100560000C001500FFF7E4FFE308F718F15C072221
:100570002240012393400B4205D1DBB20B433B7079
:10058000FFF7E2FFF8BD2100280001F027FEF0B5DB
:1005900083B00600019114001F00FFF7C9FF00E0BF
:1005A0000134BC420CD8E308F518F35C0721214064
:1005B00001228A401A42F3D1D2B21A432A7001E0D2
:1005C00001246442FFF7C0FF002C02DB200003B0CF
:1005D000F0BD019B002BF9D0089801F0FFFD000051
:1005E000002307E0054A9A189200BFF35F8F0021AD
:1005F000116001331F2BF5D97047C046400000340D
:10060000054A1078431CDBB21370172B02D9130074
:1006100010221A707047C04678080020074B9B686C
:10062000103080001950BFF35F8FBFF35F8F044B12
:100630000021196082F310887047C04600ED00E089
:10064000240100D010B50388DA0A1C2A05D15B0505
:100650005B1502335B00C01810BD034B034A04480E
:10066000B12101F023FDC046A4AF001030B200104C
:10067000BCAF001010B5091A0B1F0A4A88180A4AA5
:10068000904208D8C90706D45B105B055B0D07488C
:10069000184380B210BD064B064A0748A32101F05B
:1006A00005FDC046FC070000FE0F000000E0FFFF54
:1006B00028B0001024B20010BCAF001010B5091A09
:1006C00004394A08090B08D14905490D064B0B436B
:1006D0000380064B1343438010BD054B054A064873
:1006E000AB2101F0E3FCC04600F0FFFF00F8FFFF84
:1006F00058B00010F8B10010BCAF001001238340C7
:10070000034A10681840431E9841C0B27047C04663
:1007100000E100E0002904D0034B1860034B18608F
:100720007047034B1860FBE780E200E000E100E067
:1007300080E100E010B5012383401800FFF7EAFFD5
:1007400010BD0000024B9B6810308000C0587047FD
:1007500000ED00E070B504000D00EFF3108672B6F6
:100760000C4B1B68002BFBD0BFF35F8F2000FFF703
:10077000E9FF094B984201D0A84205D13200290077
:100780002000FFF74BFF70BD044B054A054886214A
:1007900001F08CFC240100D0CD01001068B00010E5
:1007A00058B20010BCAF0010F0B5DE4657464E46BA
:1007B0004546E0B589B0814601911500EFF3108AF6
:1007C00072B66D4B1B68002BFBD0BFF35F8F6B4B7A
:1007D00000269E57002E41DB7400A419A40068482F
:1007E00024180622A256654B1A70664B9A684B462F
:1007F00010339B00D35898461F00181A2F2839D958
:10080000614B984530D105AF604B3B806049730028
:100810009B46981980005A4B984640440230FFF797
:1008200029FF78805B4BBB80FF23BB71FD71019B6F
:10083000079333005B449B00434407CF07C3012366
:100840001C43A046524641464846FFF7E7FE09B022
:10085000F0BCBB46B246A946A046F0BD4E4B4F4A3F
:100860004F48D72101F022FC4E4B4C4A4C48DE2128
:1008700001F01CFC01380C2102F00CFE002912D101
:1008800001239F43BB463B000027DA79AA4211D9D6
:100890000621595600290CDB4A00521892003849AB
:1008A0001F008B18F1E7404B3C4A3D48EA2101F01C
:1008B000FDFB1F00002F2ED005AB3C4A1A80813A69
:1008C0005A800623FB560293002B17DA384805ABF3
:1008D0009B469880029A9A71DD71019A0792381DA1
:1008E0002100FFF7C7FEB880BE71254B7200921938
:1008F00092009B185A4613CA13C3A3E7381DFFF78B
:10090000A1FE01007000801980001D4BC01804304A
:10091000FFF7B0FEDBE705AF1C4B3B801C497300C3
:1009200002939B199B00164A90461A004244039278
:10093000901CFFF79FFE7880039A101D5946FFF721
:1009400099FEB8801B4B5A464146521A52415343B6
:100950001B0DBB71FD71019A0792029B9B199B00B5
:10096000434407CF07C3114B5A461380813B538042
:1009700001231C43A04665E7240100D0E0140020B9
:100980007C08002000ED00E0CD01001000A1FFFF79
:10099000AC08002001BDFFFFA0B0001040B2001065
:1009A000BCAF0010C8B00010F0B00010014800004B
:1009B00001BD0000AAAA0000F0B5CE46474680B5AA
:1009C00083B006000D00EFF3108872B64F4B1B6822
:1009D000002BFBD0BFF35F8F4D4B9A68340010346F
:1009E000A300D7584B4B9F4207D0AF4200D18BE0BA
:1009F0000197494BFB1A2F2B09D942463900300089
:100A0000FFF70CFE03B0C0BCB946B046F0BD3000E5
:100A1000FFF774FE814600213000FFF78BFEBFF325
:100A20005F8FEFF30581002901D08C4211D10123A2
:100A3000019C9C430020A368AB4212D00622A25620
:100A4000002A0DDB53009B189B00334A2000D4186A
:100A5000F1E7324B324A36213248FF3101F026FBB2
:100A60002000AB4249D106256557002D2BDB2A4BD0
:100A70006A00521992009B189A68A260DA79E271B2
:100A80009B795BB2A371002B0FDA2748A080224B21
:100A90006A00521992009B18244A117899711570B6
:100AA00049463000FFF746FEA7E76800401980007E
:100AB000194BC0180430FFF7C5FD0100231D1800B5
:100AC000FFF7D8FDE2E7002912D100280ED0FF235E
:100AD0008371174B838015490B78A3710E4A154B10
:100AE000A41A644163431B0D0B70D9E7094FF2E769
:100AF0001149201DFFF7E2FDD2E7104B084A6A2199
:100B00000848FF3101F0D2FA024F76E7240100D005
:100B100000ED00E0CD0100107C08002064B1001061
:100B200010B20010BCAF001001BD0000E0140020A6
:100B300001BDFFFFAAAA0000B608002098B100106E
:100B400070B5012202432E4BD31A2F2B28D8EFF376
:100B50000583002B2BD0EFF3108C72B6294909685E
:100B60000029FBD0BFF35F8F254C274905002D1BC3
:100B70006D416943090D4CB2244989689B00C958ED
:100B800091421BD00021032932D81D4B4A00521834
:100B900092009B189B795BB2A3421FD00131F2E710
:100BA0001B4B1C4AC7211C48490001F07FFA1B4B14
:100BB000184A92211848FF3101F078FA134A9268D6
:100BC0001749D150174B1A7882711C70BFF35F8F91
:100BD0000C4B00221A608CF3108870BD084B4A0041
:100BE0005518AD005D19FF26AE710F4AAA80E9E7DE
:100BF0000E4B084AD1210848490001F057FAC04677
:100C00007C080020240100D0AAAA000000ED00E02A
:100C1000A0B10010DCB10010BCAF0010C8B10010D2
:100C2000CD010010E014002001BDFFFFD4B1001081
:100C30000022044B02E0044902C30132072AFAD918
:100C40007047C04600E400E08080808010B5002B33
:100C500002DB0260436010BD024B034A03483F21A0
:100C600001F024FA74B2001004B3001090B2001026
:100C700010B582B0040000F0B1FD02000B00684620
:100C8000FFF7E4FF009A019B22606360200002B03E
:100C900010BD000070B582B0060014001D00FA22DD
:100CA000920000230698002103F03AFA02000B009C
:100CB00012196B41002B09DB6846FFF7C7FF009A4A
:100CC000019B32607360300002B070BD012252425D
:100CD000004BF1E7FFFFFF7F30B585B004000D004A
:100CE00002A8FFF7C5FF029A039B00952000FFF7BB
:100CF000D1FF200005B030BD70B504000E00150016
:100D0000FFF77EFC0100200000F006F8A680E580D9
:100D1000BFF35F8F70BD0000024B9C4661448900A9
:100D2000016070474000003410B50400FFF768FC14
:100D300001002000FFF7F0FFFF232371BFF35F8F57
:100D400010BD10B50400FFF75BFC01002000FFF7A9
:100D5000E3FFFF23237100236371BFF35F8F10BD97
:100D6000084B5B6A994209D8064A926A824207D2C6
:100D7000994201D0012002E0002000E000207047ED
:100D80000120FCE70040054010B500290AD00368A7
:100D90001B7B8B4206D38068054B9C46614409014E
:100DA000401810BD034B044A04483C2101F07EF971
:100DB000FFFFFF0FFCB300107CB7001020B4001041
:100DC000F8B504001700FFF7DFFF06684568390033
:100DD0002000FFF7D9FF026843680120AB4201D829
:100DE00002D00020C0B2F8BDB242FBD8F9E7000043
:100DF00010B5002B02DB0260436010BD024B034ABA
:100E000003483F2101F052F974B2001048B70010B6
:100E100090B2001010B582B0040004980599121821
:100E20004B41002B09DB6846FFF7E2FF009A019B6C
:100E300022606360200002B010BD01225242014BCB
:100E4000F1E7C046FFFFFF7F10B5002908D0037B04
:100E50008B4205D300684B005B18033BC01810BDE4
:100E6000024B034A0348682101F020F988B40010BE
:100E700024B70010A4B4001010B5437B8B4201D1FD
:100E8000012010BDFFF7E0FF8378002B01D1002087
:100E9000F7E70120F5E770B50400857B002D01D14F
:100EA000280070BD2900FFF7CFFF4378A373002B04
:100EB00000D1E3730023837043700370F0E70000F8
:100EC000F8B506000C001500FFF7BEFF0700002C68
:100ED0000DD0002D11D0AC4215D029003000FFF705
:100EE000B3FF84703B78002B13D13D70F8BD0A4BE3
:100EF0000A4A0B486F2101F0D9F80A4B074A084803
:100F0000702101F0D3F8084B044A0548712101F023
:100F1000CDF843703D70E9E71CB5001000B7001034
:100F2000A4B4001028B5001034B5001070B5060048
:100F30000D001400002914D0002A14D043688068E2
:100F40009847002806D0220029003000FFF7B8FF9C
:100F5000280007E02A0021003000FFF7B1FF200041
:100F600000E0100070BD0800FCE7000070B5040050
:100F70000D1E0CD0FFF768FF0023837043700370D1
:100F8000617B2A002000FFF7D1FF607370BD034B27
:100F9000034A0448A52101F089F8C0464CB5001069
:100FA00014B70010A4B4001070B504000D1E0FD0CB
:100FB000FFF762FF00280BD1E17B00290ED1A37B54
:100FC000002B03D1E37B002B0DD1A573E57370BD1E
:100FD000084B094A0948F62101F068F82000FFF79C
:100FE00033FF4570EBE7064B034A0448FB2101F051
:100FF0005DF8C04650B50010F0B60010A4B4001063
:1010000074B5001010B5002907D003681B7B8B4214
:1010100003D3C0680139401810BD034B034A04488C
:10102000412101F043F8C046FCB30010DCB60010CB
:1010300020B4001070B505000C00080000F0C8FCDA
:101040000949200000F008FCFFF7DAFA074B9C463C
:101050006044800068602C75D0231B061B786B757C
:10106000034BA400E55070BD811100104000003416
:10107000B01200200A4B1A68EFF3108172B61368A1
:10108000002BFCD0BFF35F8F054B1B68BFF35F8F56
:1010900000221A6081F3108840BF002000217047B1
:1010A000C414002010B582B0040000F097FB0200C9
:1010B0000B006846FFF79CFE009A019B226063606C
:1010C000200002B010BD70B584B0040016001D00F1
:1010D00002A8FFF7E7FF029A039B00960195200004
:1010E000FFF798FE200004B070BD0000F0B583B09B
:1010F000070001921D000AAB1C780BAB1E78002C78
:101100000BD000682100FFF7B7FE002809D0194B6B
:10111000194A1A48672100F0C9FF0068FFF7BBFEB3
:101120000400002C02D1200003B0F0BD21003800E3
:10113000FFF72AFE019B03604560089B8360099BC3
:10114000C36038682100FFF711FFA042EBD1387D62
:10115000019A2B0000F0C8FB051E01D0002E04D020
:101160000C9B002BDFD01D70DDE73868210000F0FC
:1011700075FDF5E788B5001030B7001020B40010F9
:10118000F0B5DE4657464E464546E0B58FB00B906B
:101190000021794B8200D458894683E02900200041
:1011A000FFF7F2FD804602684368921BBB41002BAB
:1011B00009DD43461A685B680B9800F095FB002335
:1011C000984600268AE0002B01D1002AF1D10021A7
:1011D000584600F039FD0700A84215D143461A6869
:1011E0005B680892099343469E68DB689846002E28
:1011F00010D029002000FFF705FF037899461B0255
:101200001F432761002069E05C4B5D4A5D488E21E9
:1012100000F04CFF5C4B5A4A5A48922100F046FFBE
:101220002369002B00D177E0BB4219D106980799BA
:10123000002342428B4100920193089A099B0CA81B
:10124000FFF7E8FD0C9A0D9B0021049101310391F9
:1012500002954146019100962000FFF747FF16E0F6
:101260004A4B474A4748A12100F020FF069A079BB6
:10127000002B01D1002A52D120682900FFF794FEEB
:1012800029002000FFF7BEFE03780133037000231E
:1012900023616268BFF35F8F13608AF310880120B7
:1012A000002861D00CA8FFF7FDFE0C9E0D9F0022C8
:1012B0000023089209936268EFF3108A72B61368EC
:1012C000002BFCD0BFF35F8F23689B465D7B002D16
:1012D00000D063E700239846002600206368BFF330
:1012E0005F8F00221A608AF31088002ED8D04B46F8
:1012F0001F022F4341463800B047069007916268AD
:10130000EFF3108A72B61368002BFCD0BFF35F8F27
:10131000079B002B00DA83E7079B002BA6DD2369E0
:10132000002BA9D0BB4219D10CA8FFF7BBFE0C9A29
:101330000D9B06980799009001910CA8FFF76AFD94
:101340000C9A0D9B002104910131039102954146B5
:10135000019100962000FFF7C9FE98E70B4B084A61
:101360000848A42100F0A2FE0FB0F0BCBB46B24674
:10137000A946A046F0BDC046B0120020B0B500108E
:1013800060B7001020B40010C8B50010D4B500102C
:1013900010B50C4B5B68002B04D00B480A21FFF7FB
:1013A000BBFC10BD074C094A20682300102100F047
:1013B000B6FB032000F006FA03212000FFF73AFEF7
:1013C000EBE7C046C4080020C4140020C10D001083
:1013D00010B5064B5B68002B01D0044810BD044BD0
:1013E000044A05485E2100F061FEC046C4080020A2
:1013F00010B60010C4B6001020B40010F0B5DE46E0
:1014000057464E464546E0B58DB0060090461F0053
:10141000169B9A46179B994618AB1B780793272370
:1014200002AA9446634400221A7021E001003000B1
:10143000FFF7E8FD00783CE00698002B5CD0079BA6
:10144000002B59D04946D04704000D0003000B4340
:1014500059D0002940DB08A8FFF724FE089A099B11
:101460000094019508A8FFF7D5FC089B9846099FB2
:101470007268EFF3108B72B6136859424B41D9B2C0
:101480000691002BF8D1BFF35F8F273302AA944651
:10149000634404930023039302934B460193534602
:1014A000009342463B003000FFF720FE0400051E7B
:1014B000BCD17368BFF35F8F002119608BF3108874
:1014C000002D17D0272302AA944663441B78002BD3
:1014D000B2D100022043B0E700236242AB41009248
:1014E000019342463B0008A8FFF794FC089B9846EE
:1014F000099FBDE7012040420DB0F0BCBB46B2469B
:10150000A946A046F0BD0698F6E7F0B5C64600B578
:1015100084B00500884616001F000AAB1C78FFF750
:1015200057FF0294019700962A004346FFF766FF93
:1015300004B080BCB846F0BDF0B5C64600B50500A5
:101540000C1E42D04268EFF3108772B61368002B6E
:10155000FCD0BFF35F8FE6B22B68984631001800CD
:10156000FFF78AFC00282AD02B69A34213D0240A53
:10157000E4B231002800FFF745FD0378A34211D003
:1015800000206B68BFF35F8F00221A6087F310881A
:1015900080BCB846F0BD0E4B0E4A2C210E48FF31E0
:1015A00000F084FD3100404600F058FB0028E8D1EF
:1015B0000A4B084A99210848490000F077FD2B6939
:1015C000A342DED100232B61DBE70020E0E7C04629
:1015D00034B60010ACB6001020B4001058B600109D
:1015E00010B50400FFF7F4FE2100FFF7A5FF10BDC2
:1015F00030B587B004000D00EFF30583002B20D138
:1016000006225242D31712196B418B4202D803D1E2
:10161000824201D90022002304A8FFF7E9FB02A8B7
:10162000FFF740FD02980399049A059B121A8B411B
:10163000002B0BDC08D02000290000F0DBF807B0FD
:1016400030BD144800F0CAFD002AF4D0124A0498B4
:10165000059900230093FFF758FF002813DAEAE703
:101660000E4B1A68EFF3108172B61368002BFCD092
:10167000BFF35F8F094B1B68BFF35F8F00221A60B7
:1016800081F3108820BF04980599FFF769FB0028B3
:10169000E6D0D0E75CB6001075100010C41400202E
:1016A00000B583B002000B006846FFF70CFD009800
:1016B0000199FFF79DFF03B000BD10B5FA2292001B
:1016C0000023002102F02CFDFFF7EAFF10BD00000F
:1016D00030B583B005000C00EFF30583002B0FD16C
:1016E0000B4A00230093FFF710FF00280BDD20BFFB
:1016F000FFF776FF28002100FFF732FB03B030BD73
:10170000FFF72EFBFAE728002100FFF729FBF5E79A
:101710007510001010B5002B02DB0260436010BD95
:10172000024B034A03483F2100F0C0FC74B2001092
:1017300064B8001090B2001070B5EFF30580103857
:10174000EFF3108C72B6194B1B68002BFBD0BFF364
:101750005F8F01221300834015494B6315490B60CD
:10176000154909780C00C440224213D0104A546A2B
:10177000124A8500AA58944205D3114AAA580E4C21
:101780009943217007E00A4A031D9B00995899501C
:10179000002200E00022BFF35F8F044B002119609C
:1017A0008CF31088002A00D0904770BD280100D02B
:1017B000004005403C700540E1140020C8140020A2
:1017C0001012002010B50100024A034B1800FEF76A
:1017D000C5FE10BD90B70010DD140020044B5B6AFD
:1017E000034A906A1900536A9942F9D17047C0467A
:1017F00000400540084B5B6A01E0074B5B6A8B4287
:10180000FBD301E0044B5B6A8B4203D1024B9B6A22
:101810008342F7D37047C04600400540F0B583B01F
:1018200004000D00FFF7DAFF06000F0022002B0076
:1018300092197B41994202D804D1904202D90122E7
:101840005242D3176846FFF765FF00980199FFF7EA
:10185000D1FF03B0F0BD000070B504000E00EFF33F
:10186000108572B61B4B1B68002BFBD0BFF35F8F3C
:10187000002E1CD02000FEF765FF174B83420BD0D3
:1018800019002000FEF766FF01212000FEF752FF3D
:101890000123A340114A1360114BA400E650BFF38B
:1018A0005F8F0C4B00221A6085F3108870BD0C4BC3
:1018B000A2000021D1500122A2400A490B78934393
:1018C0000B7005492000FFF777F800212000FEF794
:1018D00031FFE4E7280100D03917001038600540D7
:1018E00010120020E1140020F0B5DE4600B584B0EF
:1018F0000400150001921E000293FFF76FFF03958D
:101900008E4202D84ED185424CD9EFF3108B72B67D
:10191000274B1B68002BFBD0BFF35F8F254A17783E
:101920000125A540EBB23B431370234B5D63221DA1
:1019300092000199D150214AA100029888501B6A57
:101940002B4212D11C4B1B6C2B4208D00020BFF342
:101950005F8F174B00221A608BF3108823E0184B1F
:10196000184A1948C52100F0A1FBFFF737FF8E4246
:1019700014D802D1039B834210D80E4B1B78BB4274
:101980000ED00D4B1D625D631F2222400123934048
:101990000E4A1360074B1F700120D8E70020D6E7DE
:1019A0000120D4E7012004B080BCBB46F0BDC04696
:1019B000280100D0E114002000400540C814002098
:1019C000B4B7001048B80010D8B7001080E200E0AB
:1019D000EFF3108C72B60B4B1B68002BFBD0BFF3E0
:1019E0005F8F01238340084A136208490A789A43AB
:1019F0000A70BFF35F8F034B00221A608CF31088CC
:101A00007047C046280100D000400540E114002086
:101A100010B5002908D0037B8B4205D300684B002A
:101A20005B18033BC01810BD024B034A03486821F2
:101A300000F03CFB88B4001098B90010A4B400106A
:101A4000F8B506000C001500FFF7E2FF0700002CB8
:101A50000DD0002D11D0AC4215D029003000FFF779
:101A6000D7FF84703B78002B13D13D70F8BD0A4B33
:101A70000A4A0B486F2100F019FB0A4B074A084835
:101A8000702100F013FB084B044A0548712100F057
:101A90000DFB43703D70E9E71CB5001084B90010E0
:101AA000A4B4001028B5001034B5001070B50600BD
:101AB0000D001400002914D0002A14D04368806857
:101AC0009847002806D0220029003000FFF7B8FF11
:101AD000280007E02A0021003000FFF7B1FF2000B6
:101AE00000E0100070BD0800FCE770B505000023A1
:101AF000437301338373037BC373012406E0210026
:101B00002800FFF785FF0134E4B24470297BA1422D
:101B1000F5D82800FFF77CFF0023437070BD10B597
:101B2000017342608360FFF7E0FF10BDF0B5C64669
:101B300000B505000C1E03D1200080BCB846F0BDE6
:101B4000FFF766FF4678002EF6D031002800FFF739
:101B50005FFF477800239846437021002800FFF775
:101B600057FF43464370320021002800FFF79EFFD5
:101B7000040039002800FFF7D9FF020021002800E7
:101B8000FFF794FF0400D7E7F0B5C64600B50400A0
:101B90000D001700002927D0FFF73AFF4378002BEC
:101BA00028D18378002B2BD101782000FFF7BEFFCE
:101BB00006008046002F0AD0E17B002926D1A37BB6
:101BC000002B03D1E37B002B25D1A573E57343469E
:101BD000002B26D129002000FFF71AFF00234370B5
:101BE000300080BCB846F0BD114B124A1248382173
:101BF00000F05CFA114B0F4A0F483A2100F056FAF8
:101C00000F4B0C4A0C483B2100F050FA2000FFF724
:101C1000FFFE4570D3E70B4B064A0748422100F010
:101C200045FA31002000FFF7F3FE00238370D1E76F
:101C30007CB8001070B9001084B80010ECB8001027
:101C400014B9001074B5001070B504000A00457B8B
:101C50002900FFF799FF6073280070BD70B506007A
:101C60000C1E40D0437B8B4207D0FFF7D1FE05000E
:101C70008178002906D1002036E00121FFF7E4FF3A
:101C8000012031E03000FFF7C3FE0178A1420DD002
:101C90003000FFF7BDFE4178A1420AD00029F7D1FC
:101CA000124B134A13486B3100F000FA6B78037043
:101CB00001E06B7843700023AB706B700122210050
:101CC0003000FFF761FF0200717B814205D03000D8
:101CD000FFF7ECFE7073012006E0074B044A05484D
:101CE000712100F0E3F9002070BDC046D4B10010AE
:101CF00058B9001084B8001038B90010F8B5DE46A5
:101D000057464E464546E0B506000F0015000A9AB4
:101D1000934250D31A0E92461B0298460A9A002309
:101D20004046514601F0F4FB81467400A419A4001A
:101D30002F4B9C4664446368834200D26060331F2B
:101D4000DBB29B46012B3CD9C0239B01234380225D
:101D500012011A60274BB200D158002907D05869E8
:101D600001F098FB013043001B18033BFDD26D01CD
:101D700023685D40E0222A4080235B0123431A60F0
:101D80005A46012A28D980239B012343802212012D
:101D90001A604B4663604A4600234046514601F0B4
:101DA000B7FB144BB60098510120F0BCBB46B246BD
:101DB000A946A046F8BD104B104A1148332100F047
:101DC00075F9012FC0D1C0239B01234303221A6060
:101DD000A368DB07FCD5CAE72168794003220A40E3
:101DE0001A60A3680125BD401D42FAD0CBE7C0466A
:101DF0000080004020120020A4B900102CBA00106E
:101E0000B8B9001030B583B00C2000F011F9FEF71E
:101E100085FB00280DD0002304E02E4A99002E48AF
:101E200088500133092BF8D92A4B2C4A5A6203B047
:101E300030BD2B4B00229A6700F002F9294B01229A
:101E40001A60274B5B6C012BFBD1274B03221A60D6
:101E5000234B9B6B012BFBD1013300930433234AAB
:101E60000121234800F054F805230093214A012161
:101E7000214800F04DF8214B00930022022104205C
:101E8000FFF73CFF1E4D00952B000022012105208D
:101E9000FFF734FF104C009423000022002107209C
:101EA000FFF72CFF00942300002200210820FFF7F9
:101EB00025FF0A4B00932300002200210920FFF791
:101EC0001DFF00952B00002200210620FFF716FFC2
:101ED000ADE7C04620120020006CDC021BB70000FA
:101EE000008000403CB0004030B00040002F6859F6
:101EF00000800240008C864700C00240001BB700F3
:101F000040597307014B8000C058704720120020D1
:101F1000F0B5C64600B504000E0017001D00374896
:101F200001F0B8FA8046364BFA18364B9A4239D847
:101F30000100380001F0AEFA0200103A98235B006D
:101F40009A4235D86B1E062B38D8069B013B062BD0
:101F500034D83F09474537D32D04069B1B031D4347
:101F60002368002B36DB284B9C4244D080235B0146
:101F7000264A1360264A1360264A92681900914344
:101F8000FAD12660A060221DC0239B0113432122A9
:101F90001A602268002AFCDAE56008221A6080BC18
:101FA000B846F0BD1C4B1D4A1D48112100F07EF8BB
:101FB0001C4B1A4A1A48192100F078F81A4B174A94
:101FC00017481C2100F072F8184B144A14482321BA
:101FD00000F06CF822683F231340B342C3D1A368DA
:101FE0001B051B0D8342BED1E368EE22D2021340D3
:101FF000AB42B8D1D3E780239B01B9E7001BB70000
:1020000080E84BD380F8A93200C0024000E00040D5
:1020100000F0004000C000403CBA00108CBB001033
:102020009CBA001008BB001024BB001070BB00104D
:1020300080239B000343014AD36270470080054020
:10204000064BAA2212011A602F22DA60044B054ABD
:102050001A60024B5B68002BFBDA704700400240BD
:102060000060024000B0FA0000BEFDE703000A4A2B
:102070001268002A08D0084A1068C318074A9A4212
:1020800006D3054A13607047034A05491160F2E719
:1020900001204042F7E7C0469412002000000420CF
:1020A000E414002010B5FFF7DFFF000030B583B067
:1020B0000D001900002A0BD0074B084C0192009329
:1020C0002B000200200002F0F3FA0120FFF7CCFF02
:1020D000034B1A00F1E7C04698BB0010A8BB0010E4
:1020E00094AE001070B52B4B2B4A1A602B4B2C4A28
:1020F0001A602C4B9A682A4B9343FAD12A4C01E080
:1021000008CC9847294B9C42FAD3FFF77BFE234B20
:10211000274A1A60234B9B68DB43DB01FAD1254B2E
:1021200040229A675A671A67DA66234C09E0234B04
:10213000234A24488721FFF7B9FF2000FEF7F4FD6A
:102140000834214B9C4209D22368002BF5D0012B87
:10215000EDD12000FEF7F5FD0834F2E71B4DA9682C
:102160001B4CC022200002F0B9F8AC60EFF30583ED
:10217000002B00D000BEFEF733FAFEF759FDFFF743
:1021800007F9144C01E008CC9847134B9C42FAD352
:1021900070BDC04600E00040BFCDFBFE00F0004037
:1021A000FE7F3C0000C00040700E0020800E00202A
:1021B000FFFFFF0100F00140580E0020D8BB0010C7
:1021C00078BC0010F8BB0010700E002000ED00E09D
:1021D00000000020800E0020840E00200FB400B507
:1021E00083B0084802F034FA049B002B07D005A9FD
:1021F0000191180002F03CFA034802F029FA01208C
:10220000FFF732FF68BC001050CB00109A4200D29A
:1022100088547047704710B5002802D00B68496891
:10222000984710BD0100002007E083001B185B00E9
:10223000501C08601078C01830380A681378303B9A
:10224000DBB2092BF1D97047F0B5DE4657464E4652
:102250004546E0B583B093461F000C9B9A460D9C03
:102260000E9B99460F9B9B0703D0B8460F000600B4
:1022700022E00192A34688464E46B9460700B44282
:1022800007D2551C4B4641462020B84701342A004E
:10229000F5E73D004F465C46019B9B46B1464646EE
:1022A000B84637002E0007E0013C551C5346185D28
:1022B00043463900B0472A00002CF5D135003E00D6
:1022C00047460F9B9B0707D4100003B0F0BCBB46EA
:1022D000B246A946A046F0BDB0464E46B9462F00CC
:1022E0005D46531BB342EFD2541C4B46414620205F
:1022F000B8472200F5E7F0B5CE46474680B585B031
:10230000944698460C9D0D9C0EAB1B789946109AEE
:10231000119B129EB7071CD4002B0CD0F7070AD5CF
:102320004F46002F02D10C37374204D0013B02E068
:1023300030272F550134944201D21F2CF8D9F707CA
:1023400007D59C4205D21F2C03D830272F550134C6
:10235000F5E7F70612D5770505D4002C03D0944293
:1023600021D09C421FD00F9A102A32D00F9A022AF5
:1023700037D01F2C0AD830222A5501341F2C05D8FB
:102380004A46002A33D02D222A550134039602935F
:102390000194009543466246FFF756FF05B0C0BC66
:1023A000B946B046F0BD621E012C10D00F9F102F11
:1023B0000BD014000F9A102AD8D1B206D6D51F2CF4
:1023C000D4D858222A550134D3E7023CCBE7140075
:1023D000C9E7B206EED41F2CECD878222A55013476
:1023E000C7E71F2CD2D860322A550134C1E77207E3
:1023F00003D52B222A550134C8E73207C6D520223F
:102400002A550134C2E7F0B5DE4657464E464546EA
:10241000E0B593B081468A46089209931CAB10CB75
:102420001B789B461E9D219B9846002C03D11023B0
:1024300042469A4390468023DB0046461E40424671
:102440001A4212D0002C22D000260EE03033D9B22E
:10245000771C0AAB99552900200001F01BF8AC420B
:1024600016D31F2F14D83E0004002900200001F0CD
:1024700011F8CBB2092BE9D94246920605D5412184
:10248000C918C9B20A39C9B2E2E76121F8E72700E1
:1024900043460693209B05931F9B049303955B463D
:1024A000029301970AAB0093099B089A514648464C
:1024B000FFF721FF13B0F0BCBB46B246A946A046C9
:1024C000F0BDF0B5DE4657464E464546E0B597B0FE
:1024D0000A900B910C929A46209B9946219F22AA22
:1024E00013789B46249B0993259C289B98464A4633
:1024F0003A4302D11032934398468022D200454697
:102500001540434613420AD04A463A4341D000257B
:102510002E0053460D934D46099B9A461BE02E0014
:1025200053460D934D46099B9A4614E03033DAB278
:10253000731C99460EAB9A55524623002800390069
:1025400000F0E6FFBC4226D819D04B461F2B1CD802
:102550004E4605000F00524623002800390000F0C7
:10256000D7FFD3B2092BE1D94246920605D54122C5
:10257000D218D2B20A3AD2B2DAE76122F8E7AA4513
:10258000E3D94E460D9B9A4608E04E460D9B9A466F
:1025900004E0002602E04E460D9B9A464346069311
:1025A000279B0593269B0493099B03935B46029309
:1025B00001960EAB009353460C9A0B990A98FFF7BD
:1025C0009AFE17B0F0BCBB46B246A946A046F0BD85
:1025D000F0B5DE4657464E464546E0B591B08046DA
:1025E00089460C929A461A9C1B9D22002B002000C3
:1025F000290001F020FA002800D0ECE0012252422C
:10260000D44B2000290001F011FA002800D0E2E0AC
:1026100001225242D04B2000290001F0F1F900289C
:1026200000D0D8E0002200232000290001F0E8F9C2
:10263000002800D0E4E0069407958023DB001E9A72
:102640001A400D921E9A1A4201D106231C93069835
:10265000079902000B000892099303000A00024345
:1026600000D1D9E0080D4005400DBC4EB446604491
:102670000A03120B1E00BA4B13431F0001F0EEF9C0
:10268000B84AB94B01F071F9B84AB94B01F046F9B3
:10269000089009910022B74B3000390001F035F95C
:1026A000B54AB64B01F061F902000B000898099990
:1026B00001F034F901F0EAF9834601F0CFF90600A0
:1026C0000F00AF4AAF4B01F050F90022AE4B01F0C2
:1026D00025F901F0DBF90890AC4AAD4B3000390028
:1026E00001F043F906000F00089801F0B7F9A94A74
:1026F000A94B01F03AF902000B003000390001F05B
:1027000004F906000F0002000B0001F02EF90A90F8
:102710000B91089BA14A9446634400210022089132
:1027200009921B0509930023089332003B003000F7
:10273000390001F0F3F80E900F9132003B000020B9
:102740008021C90501F0E1F806000F000022944B3A
:102750000A980B9901F0EBF80022924B01F0DEF899
:1027600002000B000A980B9901F0E1F800228E4B51
:1027700001F0D4F802000B000A980B9901F0D7F889
:1027800002000B003000390001F0C8F802000B0015
:102790000E980F9901F0CBF80022714B01F0BEF8B2
:1027A000089A099B01F0E1F806000F0008960997C6
:1027B000069A079B01F03AF900282FD001235B42CB
:1027C0009C46E3440022774B3000390001F0AFF81B
:1027D0000890099122E01E9B04931D9B03931C9B70
:1027E00002930094019553460C9A4946404600F0E6
:1027F000FFF811B0F0BCBB46B246A946A046F0BDFA
:102800000021002206910792069480231B069C4615
:10281000AC446346079310E700239B465B46633353
:10282000C62B20D804261E9B1B0528D5089A099B79
:10283000190011430FD05D4A5D4B0698079901F0CE
:10284000EDF800287AD000225A4B0698079901F03B
:10285000D7F8002872D01C9B5B4506DD5A469B1AB0
:10286000013B1C9303E00526DDE700231C93802336
:10287000DB001E9A1A431E92002600239B461D9BD6
:102880009E4265D29F1B02231E9A1A400A921E9AEC
:10289000134202D0002E00D000275B46002B07D049
:1028A000089A099B0698079901F041F8069007914C
:1028B000002200232000290001F0A2F8002800D007
:1028C0007CE03D4B1E9A1340049303971C9B02939C
:1028D000069B079C0093019453460C9A4946404638
:1028E00000F086F8002E00D183E71E9B9B0671D571
:1028F0004525441C5346020049462800C0475A4615
:10290000D317D2185A4005230593013E049600239D
:1029100003930A3302935B46DB0F01930092534605
:10292000220049464046FFF76EFD0A9B002B00D16E
:102930005FE7020047460C9E1D9D53E01C9B002B49
:102940009DD00D9B002B9AD01C9B013B1C9396E7BE
:10295000002798E7FFFFEF7FFFFFEFFF01FCFFFF7E
:102960000000F03FFB799F501344D33FB3C8608B06
:10297000288AC63F0000F83F61436F63A787D23FB4
:1029800071A379094F930A400000E03F1655B5BB8B
:10299000B16B0240EF39FAFE422EE63FFF03000022
:1029A00000002C4000002440000018402D431CEB88
:1029B000E2361A3F80842E41FFF7FFFF069C079DF9
:1029C0002200290080200006844661440B00069204
:1029D000079376E765258CE7541C5346494620202B
:1029E000B8472200931BAB42F6D3100001E7C04664
:1029F000F0B5DE4657464E464546E0B595B00690E2
:102A0000079193469946209F1E9A1F9B100019001C
:102A100001F011F8002831D101225242BF4B1E981B
:102A20001F9900F0EDFF002837D101225242BC4B24
:102A30001E981F9900F0FAFF00283DD10022B94BE3
:102A40001E981F9900F0F2FF002850D10022B64BCB
:102A50001E981F9900F0D4FF002848D100220023BF
:102A60001E981F9900F0CCFF002850D100239846F3
:102A7000229B5B0500D4B6E0002458E0229B039320
:102A8000219B029303230193A84B00934B465A4684
:102A900007990698FFF7D8FB0EE1229B0393219B31
:102AA000029304230193A24B00934B465A46079985
:102AB0000698FFF7C9FBFFE00423229A1A402299E7
:102AC0000B4210D09B4B002A0FD004222299039175
:102AD00021990291019200934B465A460799069814
:102AE000FFF7B2FBE8E0944BEDE70322EEE7229B11
:102AF0000493219B039302971E9B1F9C00930194B8
:102B00004B465A4607990698FFF762FDD4E01E9A95
:102B10001F9B0020002100F0F8FE1E901F91012352
:102B20009846A5E70CAB30221A55013F01341F2C03
:102B300001D8092FF6D81E981F9900F0A7FF0500AD
:102B400000F08CFF02000B001E981F9900F0DDFEC4
:102B50007A4BFA009B181A685B680A920B9300F094
:102B600004FF0890099100F0B5FF060000F072FF25
:102B700002000B000898099900F0C7FE089009911F
:102B800000226F4B00F052FF00282ED0013630009B
:102B900000F060FF02000B000A980B9900F036FF6E
:102BA000002801D001350026002F2CD1280000F08C
:102BB00055FF02000B001E981F9900F0A6FE0600AC
:102BC0000F0000225E4B00F01BFF002846D10022C0
:102BD0005B4B3000390000F029FF00283ED1EB07A5
:102BE0003CD501353AE0062746E70022544B0898C9
:102BF000099900F005FF0028D6D1002E01D0F30777
:102C0000D2D50136D0E7AA461F2C11D8013F0A21A0
:102C1000300000F03FFC651C30310CAB19550A2127
:102C2000300000F037FC092E0ED906002C00EBE72F
:102C300055461F2C0CD87B1E002F09D00CAA302122
:102C400011551F000134F4E72B0055461C00F0E736
:102C50001F2C03D80CAB2E221A5501341F2C10D870
:102C60000A21280000F0EEFB661C30310CAB195530
:102C70000A21280000F0E6FB051E01D03400EDE734
:102C800034000323229A1340012B1CD01F2C06D89A
:102C90004346002B32D00CAB2D221A550134229B17
:102CA0000393219B029301940CAB00934B465A462D
:102CB00007990698FFF7C8FA15B0F0BCBB46B246B4
:102CC000A946A046F0BD219B002B13D04346002B04
:102CD00002D10C3313420FD0219B013B21931900E9
:102CE00003E00CAB30221A5501348C42CED21F2C9B
:102CF000F7D9CBE72199F8E72199F6E7229B5B0703
:102D000004D50CAB2B221A550134C8E7229B1B07B4
:102D1000C5D50CAB20221A550134C0E7FFFFEFFFE9
:102D2000FFFFEF7F65CDCD4165CDCDC194BC0010D7
:102D300098BC001088BC001090BC001040BE001071
:102D40000000E03FF0B5DE4657464E464546E0B54A
:102D500093B08246884693461193002900D106E33A
:102D600000255646119B1878002800D102E325283B
:102D700009D06C1C5B462A004146B047119B0133C9
:102D800011932500EEE701331193002720E0012382
:102D90001F4301321192012418E002231F43013224
:102DA0001192012412E004231F43013211920124E5
:102DB0000CE008231F4301321192012406E0102386
:102DC0001F4301321192012400E00024002C09D09D
:102DD000119A1378203BD9B21029F6D88B00C44938
:102DE000CB589F46119B1A781300303BDBB2092B5E
:102DF00010D92A2A13D00B94119B1A782E2A1ED090
:102E0000119A1378683BD9B2122959D88B00B94965
:102E1000CB589F4611A8FFF705FA0B90ECE71C9BD7
:102E20001A1D1C921B68002B04DB0B93119B0133B2
:102E30001193E1E7022217435B420B93F6E78022EE
:102E4000D20017435A1C11925A781300303BDBB260
:102E5000092B0BD92A2AD3D11C9B1A1D1C921C6842
:102E6000002C08DB119B01331193C9E711A8FFF770
:102E7000D9F90400C4E70024F4E780235B003B4356
:102E8000511C119151786C2901D01F0018E0C0230A
:102E90009B001F430232119212E080233B43511CDE
:102EA00011915178682901D01F0009E0C0231F4308
:102EB0000232119204E080235B001F430132119221
:102EC000119B1878672816D8252826D30300253BA0
:102ED000DAB2422A21D89300874AD3589F468023EA
:102EE0009B001F4301321192EAE780235B001F43DE
:102EF00001321192E4E778280FD869280DD3020037
:102F0000693AD2B2012393407C4A13420FD11A0688
:102F100000D507E25B0500D594E16C1C5B462A00F6
:102F20004146B047119B0133119325001AE77828D9
:102F30000AD062283AD06F283BD058283CD01023C2
:102F40009F43063B9C4601E010239C46582836D000
:102F5000692803D0642801D00C2297437A0501D553
:102F60000122974369282DD064282BD0BA0500D5BB
:102F7000A2E0FA0500D5C3E07A0600D4D5E01C9A99
:102F8000111D1C911168FF220A4005970B9B0493A9
:102F90000394634602930023019300925B462A0048
:102FA00041463000FFF72FFA05002AE002239C4635
:102FB000CCE708239C46C9E710239C46C6E720229D
:102FC0001743C5E7BA0520D4FA0550D47A0666D56A
:102FD0001C9A111D1C911168FF220A40D01711186C
:102FE000414005970B9B0493039463460293D20FD1
:102FF000019200915B462A0041463000FFF703FA38
:103000000500119B01331193ACE61C9A073207218E
:103010008A43110008311C91116853689946DB17E7
:103020000C930D930C9A0D9B100048400E904A464D
:1030300053400F930E980F990C9A0D9B801A99414B
:103040000E900F9108970B9B079306946346049389
:10305000002305934B46DA0F0292009001915B46E4
:103060002A0041463000FFF72CFA0500C9E71C9AF8
:10307000111D1C911268D0171118414005970B9B28
:103080000493039463460293D20F019200915B462E
:103090002A0041463000FFF7B6F90500B1E73A06CD
:1030A00005D51C9A111D1C910023D25E96E71C9A2F
:1030B000111D1C91126891E71C9A073207218A435F
:1030C000110008311C9108970B9B079306946346E7
:1030D00004930023059302935368126800920193AE
:1030E0005B462A0041463000FFF7EBF9050088E710
:1030F000A0BC0010E4BC001030BD001041900000E6
:103100001C9A111D1C9105970B9B04930394634615
:10311000029300230193136800935B462A00414603
:103120003000FFF770F905006BE73A0606D51C9AE8
:10313000111D1C9112681204120C26E71C9A111D15
:103140001C91126821E7462819D01C9B07330722DF
:1031500093431A0008321C9204970B9A039202942C
:103160001A685B68009201935B462A004146300072
:10317000FFF73EFC0500119B01331193F2E520237C
:103180001F43E2E7672801D0472802D180231B01B3
:103190001F43452801D0472801D120231F431C9BF2
:1031A0000733072293431A0008321C9204970B9AA4
:1031B000039202941A685B68009201935B462A00AE
:1031C00041463000FFF704FA0500119B01331193CB
:1031D000C8E502231A003A4091463B421DD0012423
:1031E0001C9B1A1D1C926F1C18785B462A004146D6
:1031F000B0474B46002B14D1119B013311933D0076
:10320000B0E5571C5B4641462020B04723003A00FA
:103210005C1C9D42F5D81500E2E701232A000B9DB6
:10322000F6E73A00B1460B9E06E0571C5B46414666
:103230002020C8472C003A00651CA642F5D817008C
:103240004E46D9E71C9B1A1D1C921B689A46002CFF
:1032500025D101225242534601E001330A00197878
:10326000002902D0511E002AF7D152469B1A802213
:10327000D200390011408946174202D0A34200D93A
:10328000230002221100394010913A4209D02A004D
:10329000250057469A4633004E46994621E02200C3
:1032A000D9E72A004546A04606E0541C5B462900A3
:1032B0002020B0473B0022005F1C0B999942F4D8B4
:1032C0004446A8463B00250057469A4633004E46E2
:1032D000994606E01D000137541C5B464146C8472D
:1032E00022003878002804D0002EF4D06B1E002D68
:1032F000F0D1150053464E46109A002A03D1119B77
:10330000013311932EE50B9F2A0006E0551C5B4606
:1033100041462020B04723002A005C1C9F42F5D87C
:103320001500ECE721233B431C9A111D1C911268E8
:103330000593082304930394083302930023019315
:1033400000925B462A0041463000FFF75CF805001A
:10335000119B0133119305E56C1C5B462A00414625
:103360002520B047119B013311932500FAE40B4B44
:103370009A46F5E4B2465D450DD35B465A1E5B4660
:1033800041460020D047280013B0F0BCBB46B246EF
:10339000A946A046F0BD2A00F1E7C046152200105C
:1033A00010B582B0044C009313000A000100200005
:1033B000FFF7C8FC02B010BD0D22001000B585B0AB
:1033C0000290039101210448009313004A4202A98C
:1033D000FFF7B8FC05B000BD17220010014804211A
:1033E000014B1847F00800200D34001010B5010003
:1033F00018231B8814221088984710BD10B50100AF
:1034000018231B8816221088984710BDF0B5C646B1
:1034100000B507000E0000250123984600E00135A5
:10342000B5420AD2AC003C192068FFF7DFFF2060EC
:103430000028F4D100239846F1E7404680BCB84606
:10344000F0BD0000124A936F9B0815D29066D166BA
:10345000002905D0FFE7FFE7FFE7516F106F7047C6
:1034600004B580210906C2175140002800D0C84386
:1034700007F0BEFC002104BDF0B5146E556E576F09
:10348000166FFFF7E3FF1466556657671667F0BDC2
:10349000000000D0114A936F9B0813D2106651664A
:1034A000002905D0FFE7FFE7FFE7516F106F704776
:1034B00004B5002801D00020C04307F099FC00218A
:1034C00004BDC046F0B5146E556E576F166FFFF70A
:1034D000E5FF1466556657671667F0BD000000D01B
:1034E00094464A4A926F9208624601D228E0C0464A
:1034F000F0B5464E346E756E776F366F00F020F87B
:103500009446424A14665566576716676246F0BD90
:1035100094463E4A926F9208624601D254E0C046F9
:10352000F0B53A4E346E756E776F366F00F04CF82A
:103530009446364A14665566576716676246F0BD6C
:10354000002B24DB11D000293EDA00B5C9434042EC
:1035500000D1013100F038F8C943404200D10131B7
:10356000DB43524200D1013300BD002AEBD10028D9
:1035700001D1002905D00020C90FC90701D1C043DE
:10358000410800B507F02CFC0022002300BD00B567
:1035900000290ADBDB43524200D1013300F014F86A
:1035A000C943404200D1013100BDC943404200D16E
:1035B0000131DB43524200D1013300F005F8DB4317
:1035C000524200D1013300BD002923D1002B18D174
:1035D000002A0CD0BC460D4F38667A6600210023C5
:1035E000FFE7FFE7FFE77A6F386F6746704700280D
:1035F00001D00748010000B507F0F2FB00220023CC
:1036000000BD02000B00002000217047000000D028
:10361000FFFFFFFF002B00D0BFE0130C28D1002AD2
:10362000E7D080B4114F39667A66FFE7FFE730B420
:10363000040C7B6F396F1B0423433B667A66FFE7FC
:10364000FFE7FFE7C04684B27B6F3D6F1B04234357
:103650003B667A66FFE7FFE7C04600232C042D0C8B
:103660007A6F386F00196941B0BC7047000000D014
:10367000F0B594460025140E01D112020835140F3E
:1036800001D112010435940F01D192000235D40FFB
:1036900001D152000135D40B0134254F7C66254CF5
:1036A0003C660E0C93B2FFE7FFE7FFE73C6F664313
:1036B000360C7703BE467343DF0B5B04C01AB94177
:1036C000130C7343DB18C91ACE086643360CB64494
:1036D00093B273431F0F1B01C01AB941130C7343FC
:1036E0001F0B1B05C01AB941860D8F023E4366436E
:1036F000360C092D24DB520A7243801A7703460ADE
:103700006643360C16235B1BDE40DF40BF19644660
:103710006643821B7046043506330100D940A84039
:10372000C01900D30131A24206D20023F0BD00002F
:10373000000000D0FFFFFFFF121B0130F3D3F1E7C1
:1037400009277F1BFE406446A2B27243801A00D252
:103750000139220C7243130C1204821A99410B0096
:103760007046043513370100F940A840801900D392
:103770000131002B02D1A2420AD2F0BD013000D3A8
:103780000131121BFAD2013BF8D1A24200D2F0BDA6
:10379000013000D30131121BF7E7F0B51C0C00D04B
:1037A00080E00CB400251C0A04D11B02160E334322
:1037B000120208351C0B04D11B01160F33431201F2
:1037C00004359C0B04D19B00960F334392000235C5
:1037D000DC0B02D192185B4101351C009718644143
:1037E0000134464F7C66464C3C660E0CFFE7FFE713
:1037F000FFE7C0463C6F6643360C7703BE4697B280
:103800007743C01B00D20139C01B00D201399FB2DF
:103810007743C91BC91B170C77437E04FF0B801B22
:10382000B941CE086643360C0C2D33DBB644120B7F
:103830001F053A431B0B97B27743C01B00D20139D7
:103840009FB27743C91B170C77433E043F0C801B84
:10385000B941860D8F023E43664329277F1BFE40F8
:103860000C3D7746AF40BF1930BCA2B2ABB2724339
:103870007343801A9941220C7243130C1204801A6C
:10388000994102000B000137001BA941F9D2781EB3
:103890000021F0BD0C277F1BFE4077467F0BAF4019
:1038A000FF19E0E700245D1C07D0144F7D663966E0
:1038B000FFE7FFE7FFE7FFE73C6F95B29EB2654386
:1038C0006643401BB141150C1E0C6543664336042C
:1038D0002F0C3E432D04401BB141994204D20200FB
:1038E0000B0020000021F0BD01D19042F7D3801AD7
:1038F000994101349942F2D3F6E70000000000D06C
:10390000FFFFFFFF48404140484018B41B4B5B6835
:10391000FC46019308BD04DFF33B001018B4174BBD
:103920001B68FC46019308BD00DFFD3B0010944678
:10393000134A926F920809D2624618B40F4BDB68A3
:10394000FC46019308BD0CDFB53E00100C4AF0B5F3
:10395000146E556E576F166F6246FFF7EEFF084AFA
:103960001466556657671667F0BD18B4034B9B681D
:10397000FC46019308BD08DF593D0010C01200202D
:10398000000000D0FFB550404240504059404B40ED
:10399000594000E0FFB5154F4C00640D03D0BC4208
:1039A00004D10C0314D80020090D09055C00640D36
:1039B00003D0BC4204D11C030AD800221B0D1B05F6
:1039C00001264B4009D44B4003D58B4200D18242A3
:1039D000FFBD9942FCD19042FFBD0B43DB1803436E
:1039E0001343F5D0C9434918FFBD0000FF0700008D
:1039F00000B5FFF7CFFF01D0002000BD012000BDC2
:103A000000B5FFF7C7FF804100BDC04600B5FFF716
:103A1000C1FF01D9002000BD012000BD00B5FFF7A6
:103A2000B1FF01D9002000BD012000BD00B5FFF7A6
:103A3000A9FF804100BD012040054A00121804D8AA
:103A40005A00121801D8002070470120704700204A
:103A5000704700000021002805D17047C117484079
:103A6000401AFAD0C90713B5064B1B6898470CBC1F
:103A7000441CA2401005120B0349091B09051943F8
:103A8000114310BDC01300201F04000010B54C00EE
:103A9000620D8023D218DB00D21A5B057E2A10DD6E
:103AA0009E3A13DACC170903490819435242D14010
:103AB000640001341532202A05DAD04008436043FF
:103AC00010BD002010BD0846604310BDC80FC018CF
:103AD000013810BD18B4044B5B6AFC46019308BD65
:103AE00024DF654000100000C012002070B51323D1
:103AF0001C78012C12D0012C12DC214B214A93643A
:103B00002148FFF773FC214B186070BD1C491D4A0A
:103B10009800815001331F2BF8D9ECE70023FAE716
:103B20001B48FFF76BFC05001A48FFF767FC0238DB
:103B300003789B007F2B09DD12488022290000F0CA
:103B4000CDFB022C08D0022CDADCD6E7124B134A4C
:103B500013483221FEF7AAFA124B1A88B5231B022A
:103B60009A4209D1104B1A88104B9A4204D1104B3B
:103B70001A88104B9A42E6D00020FEF72FFBC04671
:103B8000B93B0010C01200204C330000C0130020CD
:103B9000534400005346000090BE00105CBF00106C
:103BA000E4BE001054380000D83800004946000038
:103BB0009C3800005946000007B56046002800D137
:103BC00000BE01880A0A0230DF2AFAD1C9B282088F
:103BD00004D3028840880004104300E00068024AD1
:103BE0005050039007BD0000C01200200FB403BC6A
:103BF0000CBCF0B50124E407634000E0F0B50C0D07
:103C0000CF0F661E3605891B640503D3C9434042A6
:103C100000D30131640D03D0661CF60A07D0E41B03
:103C200000207F00791C89078912803C24031D0D28
:103C3000DF0F6E1E36059B1B6D0503D3DB4352421F
:103C400000D301336D0D03D06E1CF60A07D0ED1BB7
:103C500000227F007B1C9B079B12803D2D032F1BA6
:103C6000661B58D4A446202E46DA20371400BC40E8
:103C70001D00BD40F24033412A4380185941CB0F0B
:103C800005D0C943C04300226442504151416246BD
:103C90004D0D28D10D0D07D100281FD0241940410A
:103CA0004941013A0D0DF9D0640006D3013000D32B
:103CB0000131002C01D140084000013A0BD4941C82
:103CC000E40A04D112051144DB071944F0BDD907F9
:103CD000204B194300E0D9070020F0BD0029DDD1B9
:103CE000002CDBD1F0BD0132C6074008CD072843C8
:103CF0004908002EE1D0D9E73C2E29DA203E403792
:103D00001400BC4000D00124F24014431A00BB4010
:103D10001C43D317ACE7AC46202F08DA203604004A
:103D2000B4400D00B540F84039412843A5E73C2F89
:103D30000CDA203F40360400B44000D00124F840A3
:103D400004430800B1400C43C117EAE71000190012
:103D5000002494E70000F07FF0B50C0D661E3605D8
:103D6000891BE60A6405640D02D0651CED0A04D0C7
:103D7000002001210905803C2403A4461C0D671E78
:103D80003F05DB1BE70A6405640D02D0651CED0AE4
:103D900004D0002201231B05803C240377406444A7
:103DA00097B484B296B27443070C7E43150C6F43EC
:103DB00080B26843361802D3012000043F18300453
:103DC000350C00197D41844688B29AB250430C0CE0
:103DD00062431F0C7C438EB27E43921902D30126AC
:103DE0003604A4191604170C3618674101BC81B2B9
:103DF0009AB25143040C62431B0C5C4380B258439B
:103E0000121802D30120000424181004130C4018C7
:103E100063412D185E410020474106BC88B293B231
:103E200058430C0C6343120C544389B251435B1842
:103E300002D301210904641819041A0C09186241FB
:103E40006D1856410020474118BCF902720D11430C
:103E5000F0026A0D1043ED020A0D03D16D194041C5
:103E60004941013B124E9B1B7600B3420ED26D00BE
:103E700007D30130002671416646354301D1400821
:103E800040001B05C918E4072144F0BD0BDA0133DB
:103E900006D1013004D101314F0D01D04908F2E7BC
:103EA000E1070020F0BD013631050020EBE70000FE
:103EB000FF030000F0B51C0D671E3F05DB1BE70A82
:103EC0006405640D02D0661CF60A04D000220123AA
:103ED0001B05803C2403D0252D060026F6432E66C4
:103EE0001E096E66CE0FF619B44649004F0D02D07A
:103EF0007E1CF60A03D000200021403F3F033E1BFA
:103F0000B600B444013F7F05C91B49082E6F013636
:103F100076089C02950D25437543ED137543AD134B
:103F200001356D10F603761B0CB4CC02450D2C4305
:103F3000A2B2B3B25A43270C7B43350C6F43A4B2F1
:103F40006C431B1902D3012424043F191C041D0CCB
:103F5000A4187D4124196D41009A91B2ACB261431D
:103F6000170C7C432B0C5F4392B25A43A41802D324
:103F700001221204BF182204230C52187B41019C19
:103F80006C431B19520ED9010A434401A01A81B295
:103F9000B2B2514303145A43360C734387B277438A
:103FA000D617D21900277E4136049B191704160C28
:103FB0007F185E417316ED18F301002680337541BA
:103FC000A90F06D16400690AE8055B0A184309D203
:103FD0002FE00422944480337541A90AA8059B0A66
:103FE000184326D3404149412404009A019B0D0007
:103FF0005543641B4343E41A95B286B27543170CCC
:104000007E43030C5F4392B25A43B61802D3012297
:104010001204BF183204330C52197B4152429C41A6
:10402000002C02D40022013051414008CA0710433D
:10403000490802B06246D7079210084BD218084BC5
:104040009A4203D212058918C919F0BD0020002A2E
:1040500001DC3900F0BD01331905F5E7FD0300006F
:10406000FE070000002200B5203200F004F808002E
:1040700000BD000000220B150AD410B5944600F0D4
:1040800031F81414013400DA0021CB17144C204706
:104090000020002170476244343A0CD40C2A07DA1D
:1040A00004009140904052422032D440214310BD40
:1040B000D843D94310BD203207D40C469440524215
:1040C00020321141D040204310BD0800C9172032D2
:1040D00003D452422032104110BD1800190010BD07
:1040E000974000100A0DCC0F531E1B05C91A52052C
:1040F00003D3C943404200D30131520D03D0531CB6
:10410000DB0A07D0121B00206400611C890789129A
:10411000803A1203014BD21A70470000FF030000DF
:1041200051434343C9188C46110C83B24B4310B41E
:10413000040C614392B280B2504362431C041B0CD6
:10414000001910BC59411304120CC01851416144AC
:104150007047000070B513231E782A48FFF74EF908
:104160000500012E11D0012E09DDAB1E1B789B002E
:104170007F2B40DD24488022290000F0AFF823483F
:10418000FFF734F9224B186070BD1F4854222900F4
:1041900000F0A4F81F4B1A881F4B9A421CD1A7238A
:1041A0009B011A881D4B9A4216D11D4B1A881D4B34
:1041B0009A4211D11C4B1A8894239B019A420BD12D
:1041C0001A4B1A881A4B9A4206D11A4B1A681A4B84
:1041D0009A4201D1152307E01848FDF7FFFF184C5C
:1041E000094A99008C5001331F2BF8D9144B064A09
:1041F0001362D361B7E7134B134A14484221FDF70A
:1042000055FFC04653460000C41300204C33000045
:10421000C0130020EE290000C40F0000C20D0000F2
:10422000962B0000C0B50000182B0000CC2A00001F
:1042300010B50000FC2C000051ED876494AE001016
:104240005142001070BF001018C00010A4BF001031
:1042500007B56046002800D100BE01880A0A023076
:10426000DF2AFAD1C9B2820804D302884088000448
:10427000104300E00068024A5050039007BD000060
:10428000C413002010B5002804D04018034B9842F6
:1042900000D810BD0248FDF7A1FFC0460000042071
:1042A0002CC0001070B5050005F040FD0400290089
:1042B000FFF7E8FF200070BD10B505F041FD10BD0F
:1042C00001480421014B1847000900200D3400105B
:1042D000014B1B681847000000090020014B5B6878
:1042E0001847000000090020084B5B6A994209D872
:1042F000064A926A824207D2994201D0012002E026
:10430000002000E0002070470120FCE7004005404D
:1043100010B50300080011001B68984710BD00008D
:10432000F8B507000D001600437D002B02D00024D5
:1043300000200CE003681100280098472DE03B7D29
:1043400010E03B68154802219847601C0134B442D4
:1043500014DA002CF3DD2B19013B1B780D3B5A427C
:104360005341DBB22A5D0A2AF0D1002BEED1A042E4
:10437000E7DA3B68211A28189847E2E7B04203DAE7
:104380003B68311A28189847002E06DDAD19013D0B
:104390002B780D3B5A4253413B75F8BD9CC0001031
:1043A00070B505000368002B16D00C4B1C6805E0A7
:1043B000290004C92000FFF7B3FF2469002C09D0AD
:1043C0002368002BF9D0064B1B68002BF0D0A342CA
:1043D000F3D1EDE700232B6070BDC04688120020AA
:1043E0009012002070B505000C000B68802B05D0E2
:1043F00023685A1C2260E418257170BD0800FFF77D
:10440000CFFFF5E710B5002B02DB0260436010BD63
:10441000024B034A03483F21FDF748FE74B20010E7
:10442000A0C0001090B2001010B582B00400FDF7DB
:10443000D5F902000B006846FFF7E4FF009A019BE4
:1044400022606360200002B010BD000070B582B031
:10445000060014001D00FA22920000230698002195
:10446000FFF75EFE02000B0012196B41002B09DB07
:104470006846FFF7C7FF009A019B32607360300007
:1044800002B070BD01225242004BF1E7FFFFFF7FF7
:1044900030B585B004000D0002A8FFF7C5FF029AF1
:1044A000039B00952000FFF7D1FF200005B030BD31
:1044B000F8B5CE46474680B507000E0091469846AF
:1044C0001BE0A368002B04D0310038009847002877
:1044D00018DC2469002C06D00C4D2D68002DF0D07E
:1044E000A542F6D1EDE748464146FFF7FDFE00281C
:1044F00006D101200021FDF791F9054B1C68E9E781
:1045000001204042C0BCB946B046F8BD9012002020
:104510008812002000B583B0FA2189006846FFF7B1
:10452000B7FF009A019B024806F072FC03B000BD81
:10453000580E002010B5024806F04AFC10BDC046D7
:10454000580E0020F0B5CE46474680B583B0060031
:104550000D0090461C00FFF7DDFF81466B1C05D067
:10456000002C08D0194F1A4B1C6807E0300006F0E9
:10457000B1F90500F4E7174FF5E72469002C17D0CF
:104580002368002BF9D0144B1B68002B01D0A342E9
:10459000F3D12A0031002000B8474346002BECD06D
:1045A0006B46D91D0A230B7001222000B847E4E7AF
:1045B0004B46002B07D16B1E9D41E8B203B0C0BC37
:1045C000B946B046F0BDFFF7B5FFF4E71143001060
:1045D00088120020214300109012002010B5030023
:1045E00008001100002B05D1044B1A685B68FFF727
:1045F0005FFF10BD01204042FBE7C04688B70010B6
:1046000010B5030008001400013B012B06D800235D
:1046100000222100FFF796FF200010BD012040423C
:10462000FBE70120404270470120404270470000F4
:1046300010B5064B1C6801E098472469002C03D094
:104640006368002BF8D1F8E710BDC046881200203F
:1046500070B5050006F03EF90400002301220100B8
:104660002800FFF76FFFFFF7E3FF200070BD000099
:1046700070B5A2B004000E00FFF74CFF0500002348
:1046800001930A483300220001A9FEF797FE0400B7
:1046900001A8FFF785FEFFF7CBFF002D02D1200018
:1046A00022B070BDFFF746FFF9E7C046E5430010B2
:1046B0000FB400B583B004A901C90191FFF7D8FF79
:1046C00003B008BC04B0184710B5FFF7EBFD10BDF0
:1046D00010B5FFF7F1FD10BD7F2801D880B27047FB
:1046E00080235B02984215D2B623FF3399420FD044
:1046F0000020F4E701339BB27F2B04D85A0006490F
:104700008A5A8242F6D180331800FF231840E6E728
:104710000023F1E70020E2E78CC30010F0B580230E
:104720005B02984227D286B280235B019E4201D26F
:10473000204B02E0204B00E02B001A88002A19D001
:10474000964217D31D1D59880C0AFF230B40010404
:10475000090C9F18B94204DB002CEDD15B00EB186B
:10476000EBE7082C06D8A400144B1B599F46891A66
:1047700049006E5A3000F0BDB21A01231340F61AF8
:10478000B6B2F7E7103EB6B2F4E7203EB6B2F1E7B4
:10479000303EB6B2EEE71A3EB6B2EBE70836B6B236
:1047A000E8E7503EB6B2E5E7054B9C466644B6B234
:1047B000E0E7C04698C10010DCC00010B8C000108F
:1047C000A0E3FFFF43781B02007818437047020004
:1047D000C3781B0281780B431802537818430002F8
:1047E0001378184370470300C17909028279114395
:1047F000090242791143090202790A43090E1202A1
:10480000C0781043120E0902114300029A78024345
:10481000000E09020143120258781043120E0902D9
:10482000114300021B78184370470170090A417058
:10483000704701700B0A43700B0C8370090EC17036
:1048400070470270110A4170110C8170120EC27013
:1048500003711A0A42711A0C82711B0EC3717047E0
:104860000020704770B5050003685C1C1B781800B9
:104870005AB2002A01DB2C6070BD1F22190091433F
:10488000C0290DD00F2219009143E02935D007220D
:1048900019009143F02934D107201840032102E088
:1048A0001F2018400121227801343F2316009E4327
:1048B0003300802E28D18001413B13401843013939
:1048C0000029F0D17F2822D980221201144BC3186D
:1048D00093421FD388235B0398421ED280235B023E
:1048E0009842C8D30F4BC3189B010F4A1340800551
:1048F000800D03430D481843BDE70F2018400221E7
:10490000D1E701204042B7E701204042B4E701204F
:104910004042B1E701204042AEE701204042ABE710
:104920000028FFFF0000FFFF0000FF0300DC00D8AD
:1049300030B50025002301E0012501330F2B15D8E8
:10494000184A1C01A258002AF6D00468A242F4D1E9
:10495000144A1C011219546882689442EDD1114A1C
:104960001C0112199468026B9442E6D1102B0BD0F3
:10497000002915D10B4A1B01D218D26880235B0095
:104980009A420BD0002030BD002D05D1022901D064
:104990001220F8E70020F6E70020F4E71020F2E705
:1049A0001020F0E7980F002000200F2806D8054BB4
:1049B0000201D358002B01D00130F6E71038431E16
:1049C00098417047980F002030B50400002000E0A7
:1049D00001300F2813D8254B0201D25823689A4280
:1049E000F6D1224B02019B185A68A3689A42EFD174
:1049F0001E4B02019B189A68236B9A42E8D110283B
:104A00002AD0002905DD194B02019B18DB68002B19
:104A100029D1002922D1154B02019B18DA680132F5
:104A2000124B01015B18DA60013030BD01300F28F4
:104A300004D80E4B0201D358002BF7D1102810D008
:104A400025680A4B0201D550A5689B185D60226B52
:104A50009A600022DA60D4E70020E8E78022520062
:104A6000DEE70020E1E70020DFE7C046980F0020E6
:104A700001380F2818D80E4B02019B18DB688022E2
:104A80005200934203D0002B08D0013B00E00023EA
:104A9000074A01015218D360002B07D1044B0001D3
:104AA0000022C250002070470220FCE70020FAE7F5
:104AB000980F002010B5002300E001330F2B08D819
:104AC000044A19018A588242F7D1024A00248C50C4
:104AD000F3E710BD980F002070B50300881EDA6A56
:104AE000023A824209D91C6D5D6D5A89002300216A
:104AF000FFF716FB0019694170BD00200021FBE79C
:104B000070B50568C46D0434D905500A0843590AC4
:104B10006A890023FEF7FCFC020001E0121A083447
:104B20002068002803D08242F8D26068801870BDE7
:104B300070B506000C0008001A30FFF743FE0500B0
:104B40003378032B00D070BD20001430FFF73AFEFD
:104B500000042843F7E770B506000C00150091B279
:104B600020001A30FFF761FE3378032B00D070BDB0
:104B7000290C20001430FFF758FEF8E7F0B5C646C0
:104B800000B580460E0008001A30FFF71BFE002813
:104B90002CD1337840229343013B5D00ED18AD00EA
:104BA000ED180127002403E0174A904224D1013474
:104BB0000C2C0ED8154B185D3018FFF703FE002F94
:104BC000F2D0FF2D16D86B004246D05207000135B7
:104BD000EDE733785B0611D5002F11D0FF2D11D8EA
:104BE0006D00454400222A80012000E0002080BCA6
:104BF000B846F0BD0020FAE70020F8E70120F6E70C
:104C00000120F4E70020F2E7FFFF000014C60010C7
:104C1000F8B5CE46474680B580460F0091464B73A7
:104C20000F23CB7200230B7308001A300021FFF70B
:104C3000FCFD4B46013B5E00F618B600F61800245A
:104C4000002502E001350C2D10D8124B9C4203D0F8
:104C500073004246D45A01360F4B585D3818210074
:104C6000FFF7E3FD002CEDD10A4CEBE7094B9C422A
:104C700004D076004346F35A002B04D140234A4621
:104C80001A43D3B299464B463B70C0BCB946B046B6
:104C9000F8BDC046FFFF000014C6001010B50100AB
:104CA0000B2400204308C0010343DBB20A78013122
:104CB0009B18D8B2013C002CF4D110BD10B50400F3
:104CC0004278013252010020002301E00133013318
:104CD000934209D2022BF9D0C1034008401880B298
:104CE000E15C401880B2F2E710BD70B505000C0021
:104CF00000693430FFF76BFDA06028693830FFF79A
:104D000072FD206161612A692123D25C1F3B13403F
:104D1000E3710023E36170BD10B501000068002855
:104D200023D00200137801321F2B01D93A2BF9D17D
:104D30003A2B02D00E4B187810BD03781C00303C83
:104D4000E4B2092C0ED80230904202D00120404239
:104D5000F2E7303B1800012B02DD01204042EBE777
:104D60000A60E9E701204042E6E701204042E3E72C
:104D7000DC140020012304E0002207E040085B006F
:104D8000DBB2002B09D01942F6D001225040C207F5
:104D9000F4D5420801485040F1E770472083B8ED50
:104DA00070B504000D00002608E00022234B20000F
:104DB0002900FEF7BCFD04000D00013600221F4B48
:104DC00020002900FEF72AFE00281AD000221C4BE2
:104DD00020002900FEF722FE0028E6D00022184B12
:104DE00020002900FEF7A3FD04000D000536E5E7CD
:104DF0000022124B20002900FEF7B7FD04000D0031
:104E0000013E00220F4B20002900FEF7F9FD00288B
:104E100011D00D4A0D4B20002900FEF7F1FD0028AE
:104E2000E6D00022064B20002900FEF79EFD04007C
:104E30000D00053EE5E7300070BDC046000024408F
:104E4000006AF8400000F03FF168E388B5F8E43EFE
:104E500010B504000020104904E000220F4BFEF7BB
:104E600084FD013C002C0CDD042CF6DD00220C4BF3
:104E7000FEF77BFD053CF5E70022084BFEF757FDEA
:104E80000134002C07DA231DF6DA0022044BFEF76A
:104E90004EFD0534F5E710BD0000F03F0000244052
:104EA000006AF840F0B5DE4657464E464546E0B546
:104EB00087B0040011001A000091019210AB01CBE1
:104EC00081461B789B460800110002000B00FEF78C
:104ED000B2FD002800D02EE14B46002B41DB002222
:104EE0000023009D019E28003100FEF789FD002867
:104EF0003AD12B239A460099019A0E0053005F087D
:104F0000012252428E4B30003900FEF794FD0028FA
:104F100035D1012252428A4B30003900FEF776FD2E
:104F200000282CD1874D002700239846002D00D162
:104F30008FE0002D0CD05346002B01D0237001349C
:104F40002A0001351278227001342B78002BF7D11A
:104F50000023237007B0F0BCBB46B246A946A0466A
:104F6000F0BD06239946BAE72A003300002000214D
:104F7000FEF7CBFC009001912D239A46BBE75B46E0
:104F8000662B0CD00022002300980199FEF730FD1B
:104F9000002822D00025002700239846C6E74B466C
:104FA0005842FFF755FF0022674BFEF7DEFC020078
:104FB0000B0000980199FEF7B1FC00900191FFF7FA
:104FC000EFFE071E07DB4B46DB191C2B37DC0025E9
:104FD00000239846AAE70027F5E7009D019E2800D8
:104FE0003100FFF7DDFE4B46C01AFFF731FF00220C
:104FF000554BFEF7BAFC02000B0028003100FEF70B
:105000008DFC00900191FFF7CBFE804663281ADCEF
:105010004B46182B1ADC0300633302DA63235B422E
:1050200098464046FFF714FF02000B0000980199D4
:10503000FEF77DFC009001910025002776E7434DA7
:105040000023984672E7414D00276FE73F4D002748
:105050006CE753462D2B0AD04346039353460493E3
:10506000BA460595009E019F5B4600933AE0237087
:1050700001344346039353460493BA460595009E74
:10508000019F5B4600932DE0631C9B462E232370FB
:105090005046FFF7DDFE04000D0002000B0030005B
:1050A0003900FEF744FCFEF7F1FC8046FEF7D6FC23
:1050B00022002B00FEF759FC02000B0030003900E3
:1050C000FEF723FC06000F005B465C1C43463033B2
:1050D0005A46137001235B429C46E2444B465B42B6
:1050E000534504DC53460133CED0A346D0E7039B9F
:1050F0009846049B9A46059D009B662B00D118E7B5
:1051000053704346002B10DBD71C2B2393700A21CE
:105110004046FEF797F9303038700A214046FEF7D6
:1051200091F9BC1C3031797003E75B429846D71C7B
:105130002D239370EBE7064D00239A46F9E6C0460F
:10514000FFFFEF7F8CC400100000E03F90C4001010
:1051500094C4001070B504000D00002818D0036836
:10516000002B17D01A78002A17D08188DA8891424C
:1051700003D0092000242C6070BD587804F00EFC88
:1051800003000122100018401A4209D12468F2E7F6
:105190000920F0E71C000920EDE709200024EAE7D8
:1051A00009200024E7E70000F8B505001C490C229F
:1051B00005F0DEFA061E2FD128000C30FFF707FBA2
:1051C000070002005C3AD2235B009A4225D80120F6
:1051D0004042002403E00021FFF7CCFD0134BC4233
:1051E00005D22300103B032BF5D9295DF4E7C44316
:1051F00028001030FFF7EBFA84420ED1280054301B
:10520000FFF7E5FA802808D128005030FFF7DFFAD1
:10521000802802D8012600E000263000F8BDC046F4
:1052200034C60010F0B5C64600B582B0040005795A
:10523000002D04D1280002B080BCB846F0BD682320
:1052400098468044026E436E4078012100914146A9
:1052500004F0DDFB051E1BD100232371206E616E5F
:10526000226C636C06000F00B61A9F41226B00236C
:10527000BB42DFD1B242DDD9E678022EDAD1121874
:105280004B41607801210091414604F0C0FBD1E719
:105290000125CFE7F0B583B0040015001F00026EB2
:1052A000436EAA4205D1BB4203D10026300003B0B1
:1052B000F0BD2000FFF7B6FF061EF7D121006831D0
:1052C0006078012300932A003B0004F087FB00284C
:1052D00003D0013601256D422F0025666766E5E79C
:1052E00070B504000021017101204042C117206601
:1052F00061662000FFF7CEFF002867D1344BE0182D
:10530000FFF760FA0500334B98420CD06823E35C4A
:10531000EB2B12D0E92B10D0E82B0ED02D4B9D4259
:1053200052D0032070BD200068302B490B2205F0BD
:105330001FFA0028EAD10120F4E7264B9D4239D01C
:1053400020007330FFF73EFA7523E15C431E0342F1
:10535000E4D180239B009842E0D3DFD80029DDD040
:105360004B1E0B42DAD120007630FFF72BFA0028D3
:10537000D4D07823E35C013B012BCFD820007930D7
:10538000FFF720FA0028C9D020007B30FFF71AFA77
:105390007F2807D820008830FFF719FA80235B02A6
:1053A0009842BBD320007E30FFF70CFA0028B5D01E
:1053B0000020B7E7094908222000BA3005F0D8F9E3
:1053C0000028BDD10020ADE70220ABE70420A9E70B
:1053D0006602000055AA000098C40010A4C4001082
:1053E000F0B5DE4657464E464546E0B589B0040066
:1053F0000D0000220023FFF773FF022804D000D91C
:1054000083E0002D00D180E0454BE35CEE2B0FD014
:105410000026032E60D8200068303301C733FF33E5
:10542000C018FFF7D4F9B30004AAD0500136F0E752
:10543000012200232000FFF72DFF002864D16823FC
:105440009A46A2445046FFF7AFFE002864D02000E1
:10545000B830FFF7BCF983462000B030FFF7C3F93E
:1054600000900191002303939946A0462B004D46DE
:10547000994603E0039B994547D001355D4529D204
:10548000EC01660A0027009A019B92197B41404675
:10549000FFF700FF002841D1C0235B001C402149D9
:1054A00053461819102205F063F90028E5D1039B33
:1054B00001330393203420005044FFF794F9020095
:1054C0000B004046FFF70CFF4B46002BD2D10128C2
:1054D000D3D81AE0032018E0002D01D06E1E0CE096
:1054E0002E000AE000232000FFF7FAFE002D0CD169
:1054F00001280AD90136032E07D8B30004AA9A5806
:10550000002AEFD10320F1E7042009B0F0BCBB462C
:10551000B246A946A046F0BD0320F6E70420F4E712
:105520002A02000024C60010F0B5DE4657464E465B
:105530004546E0B589B00D00160000230B60FFF76B
:10554000EBFB002800DA49E2C84B8000C458002C6D
:1055500000D14CE22C6001239E432378002B0FD016
:10556000607804F01BFA01231D000540034207D1B7
:10557000002E00D133E2400700D430E20A252EE2AB
:1055800000232370607804F014FA01231D00054005
:10559000034200D02DE2002E02D0400700D52AE2BF
:1055A00000212000FFF71CFF042800D125E201287C
:1055B00000D924E2226E636E00920193012800D18B
:1055C000E6E020007330FFF7FDF880239B0098424F
:1055D00000D02CE220007E30FFF7F4F8061E04D144
:1055E00020008C30FFF7F3F8060026637823E75C91
:1055F000E7707B1EDBB2012B00D91AE277430297DA
:105600007523E75C6781002F00D114E27B1E3B42CB
:1056100000D012E220007930FFF7D4F88146030071
:10562000049020811B0700D009E220007B30FFF7A7
:10563000C9F88046002804D120008830FFF7C7F859
:10564000804620007630FFF7BDF88346002800D161
:10565000F7E1029A5A444B461B099BB29146994482
:10566000C84500D2EFE143464A469B1A98463900A6
:105670001800FDF70FFFB84500D2E6E17C4B9842D9
:1056800000D9FBE07B4B984200D951E102239A46B6
:10569000F6E001333F2B04D8E21868321278002A72
:1056A000F7D03F2B00D8ACE12000D030FFF78AF8CC
:1056B00080235B00984200D0A5E12C3BE35C092BE2
:1056C00000D0A2E12000B030FFF78DF8009E019FCE
:1056D00036184F412000BC30FFF779F82063D623FD
:1056E000E35C9846E370012B00D090E1D433E35C97
:1056F00001229A40924693B26381002B00D188E147
:105700002000C430FFF763F881465B4B984200D914
:1057100081E103000233E362009A019BA263E36329
:105720002000C030FFF753F80200002300980199D1
:10573000801859410A0001000291039221656265B7
:105740002300B8331800FFF742F802000023009846
:10575000019912184B412264636453461B041B0CCD
:105760004A465A4310000021029A039B801859416F
:10577000B94211D80ED02000C830FFF728F8A06435
:105780000023E36400270026B1462600AA460DE068
:105790000B237FE7B042EED90D2520E1F3196833E2
:1057A0001B78812B1CD02037FF05FF0D002FF5D172
:1057B00073894B4500D830E1B16C3000FFF78CF9AC
:1057C0004C46002502000B0012196B413000FFF718
:1057D00061FD002800D022E101239C46E144DDE781
:1057E00034006836380014303018FEF7F0FF070038
:1057F000012800D815E1E36A834200D813E1226D45
:10580000636D0092019363899C46831E99466346AB
:105810004A46534318000021009A019B12184B413D
:10582000A265E365B1462600326C736CFC09002565
:1058300012196B413000FFF72DFD002800D0F4E075
:105840007F30384080004844FEF7C1FF431C04D03D
:105850000137B842E8D00D25C1E034005546012398
:105860005B42B361736105339A4653E0900F0020A9
:10587000F5FFFF0FF5FF0000FDFFFF7F00239A46B5
:10588000784B984257D95346002B00D1DFE0831C58
:105890009846E362009A019BA263E36358460021A5
:1058A0008018594102000B0006920793226463643A
:1058B0004A4600230098019912184B4122656365FE
:1058C0005346032B3AD0049B002B00D1C5E0029A2B
:1058D00000230698079912184B41A264E3645346CB
:1058E000022B40D043465B0043445B080122414603
:1058F0000A409B185C4A944663445B0AB34200D951
:10590000ADE001235B42A361636181336371534660
:10591000032B2BD053462370544A138801339BB278
:105920001380E3800023E3612000FFF7C3F856E013
:1059300003239A46A7E701239A46A8E7200092305E
:10594000FEF740FF002800D083E0049B002B00D02E
:1059500081E020009430FEF73AFFA0640023E36466
:1059600043469B00C6E743465B00C3E720009830F0
:10597000FEF728FF0128CDD10122002300980199CC
:105980008018594102000B002000FFF783FC00281B
:10599000C0D100236371364BE018FEF713FF354B7F
:1059A0009842B7D120006830FEF711FF324B984281
:1059B000B0D193239B00E018FEF709FF2F4B9842CC
:1059C000A8D194239B00E018FEF701FFA061952366
:1059D0009B00E018FEF7FBFE60619BE70B252800AB
:1059E00009B0F0BCBB46B246A946A046F0BD0C25A6
:1059F000F5E70325F3E70A25F1E70125EFE70D2594
:105A0000EDE70D25EBE70D25E9E70D25E7E70D258A
:105A1000E5E70D25E3E70D25E1E70D25DFE7454641
:105A2000DDE70D25DBE70D25D9E74546D7E70D2551
:105A3000D5E70D25D3E70D25D1E70D25CFE70D25BA
:105A4000CDE70D25CBE70D25C9E70D25C7E70D25CA
:105A5000C5E70D25C3E70D25C1E70D25BFE70D25DA
:105A6000BDE7C046F50F0000FF010000D81400207C
:105A70006602000055AA00005252614172724161F3
:105A8000F0B5DE4600B584B0070093468E1EC36AAB
:105A9000023BB34200D80026009634000025BA6DC0
:105AA000FB6D210B029100210391029803991218BA
:105AB0004B413800FFF7EEFB019000282BD1E308A3
:105AC000DB05D80D0722224001239340DBB20BE017
:105AD00000940025A64221D0002B05D1013080235F
